{
  "_format": "hh-sol-artifact-1",
  "contractName": "PatientRecords",
  "sourceName": "contracts/PatientRecords.sol",
  "abi": [
    {
      "anonymous": false,
      "inputs": [
        {
          "indexed": true,
          "internalType": "address",
          "name": "patient",
          "type": "address"
        },
        {
          "indexed": true,
          "internalType": "address",
          "name": "doctor",
          "type": "address"
        },
        {
          "indexed": false,
          "internalType": "uint256",
          "name": "expiresAt",
          "type": "uint256"
        }
      ],
      "name": "AccessGranted",
      "type": "event"
    },
    {
      "anonymous": false,
      "inputs": [
        {
          "indexed": true,
          "internalType": "address",
          "name": "patient",
          "type": "address"
        },
        {
          "indexed": false,
          "internalType": "string",
          "name": "ipfsHash",
          "type": "string"
        }
      ],
      "name": "RecordUploaded",
      "type": "event"
    },
    {
      "inputs": [
        {
          "internalType": "address",
          "name": "",
          "type": "address"
        },
        {
          "internalType": "address",
          "name": "",
          "type": "address"
        }
      ],
      "name": "accessControl",
      "outputs": [
        {
          "internalType": "bool",
          "name": "granted",
          "type": "bool"
        },
        {
          "internalType": "uint256",
          "name": "expiresAt",
          "type": "uint256"
        }
      ],
      "stateMutability": "view",
      "type": "function"
    },
    {
      "inputs": [
        {
          "internalType": "address",
          "name": "doctor",
          "type": "address"
        }
      ],
      "name": "getDoctorAccessibleRecords",
      "outputs": [
        {
          "components": [
            {
              "internalType": "address",
              "name": "patientAddress",
              "type": "address"
            },
            {
              "internalType": "string",
              "name": "ipfsHash",
              "type": "string"
            },
            {
              "internalType": "uint256",
              "name": "expiresAt",
              "type": "uint256"
            }
          ],
          "internalType": "struct PatientRecords.PatientRecord[]",
          "name": "",
          "type": "tuple[]"
        }
      ],
      "stateMutability": "view",
      "type": "function"
    },
    {
      "inputs": [],
      "name": "getMyRecord",
      "outputs": [
        {
          "internalType": "string",
          "name": "",
          "type": "string"
        }
      ],
      "stateMutability": "view",
      "type": "function"
    },
    {
      "inputs": [
        {
          "internalType": "address",
          "name": "doctor",
          "type": "address"
        }
      ],
      "name": "getPatientsWhoGrantedAccess",
      "outputs": [
        {
          "internalType": "address[]",
          "name": "",
          "type": "address[]"
        }
      ],
      "stateMutability": "view",
      "type": "function"
    },
    {
      "inputs": [
        {
          "internalType": "address",
          "name": "patient",
          "type": "address"
        }
      ],
      "name": "getRecord",
      "outputs": [
        {
          "internalType": "string",
          "name": "",
          "type": "string"
        }
      ],
      "stateMutability": "view",
      "type": "function"
    },
    {
      "inputs": [
        {
          "internalType": "address",
          "name": "doctor",
          "type": "address"
        },
        {
          "internalType": "uint256",
          "name": "expiresAt",
          "type": "uint256"
        }
      ],
      "name": "grantAccess",
      "outputs": [],
      "stateMutability": "nonpayable",
      "type": "function"
    },
    {
      "inputs": [
        {
          "internalType": "address",
          "name": "",
          "type": "address"
        }
      ],
      "name": "patientToHash",
      "outputs": [
        {
          "internalType": "string",
          "name": "",
          "type": "string"
        }
      ],
      "stateMutability": "view",
      "type": "function"
    },
    {
      "inputs": [
        {
          "internalType": "string",
          "name": "ipfsHash",
          "type": "string"
        }
      ],
      "name": "uploadRecord",
      "outputs": [],
      "stateMutability": "nonpayable",
      "type": "function"
    }
  ],
  "bytecode": "0x608060405234801561001057600080fd5b5061191d806100206000396000f3fe608060405234801561001057600080fd5b50600436106100885760003560e01c80635928f13f1161005b5780635928f13f1461013c578063617fba041461016c5780637fb869bb1461019c5780639df89256146101b857610088565b806303536d431461008d57806324981341146100be5780632535de48146100ee57806350d87c4d1461011e575b600080fd5b6100a760048036038101906100a29190610f3d565b6101d4565b6040516100b5929190610fb1565b60405180910390f35b6100d860048036038101906100d39190610fda565b610212565b6040516100e591906110c5565b60405180910390f35b61010860048036038101906101039190610fda565b6102df565b6040516101159190611298565b60405180910390f35b61012661075a565b6040516101339190611304565b60405180910390f35b61015660048036038101906101519190610fda565b610876565b6040516101639190611304565b60405180910390f35b61018660048036038101906101819190610fda565b610916565b6040516101939190611304565b60405180910390f35b6101b660048036038101906101b1919061138b565b610aea565b005b6101d260048036038101906101cd9190611404565b610c42565b005b6001602052816000526040600020602052806000526040600020600091509150508060000160009054906101000a900460ff16908060010154905082565b6060600360008373ffffffffffffffffffffffffffffffffffffffff1673ffffffffffffffffffffffffffffffffffffffff1681526020019081526020016000208054806020026020016040519081016040528092919081815260200182805480156102d357602002820191906000526020600020905b8160009054906101000a900473ffffffffffffffffffffffffffffffffffffffff1673ffffffffffffffffffffffffffffffffffffffff1681526020019060010190808311610289575b50505050509050919050565b60606000600360008473ffffffffffffffffffffffffffffffffffffffff1673ffffffffffffffffffffffffffffffffffffffff1681526020019081526020016000208054806020026020016040519081016040528092919081815260200182805480156103a257602002820191906000526020600020905b8160009054906101000a900473ffffffffffffffffffffffffffffffffffffffff1673ffffffffffffffffffffffffffffffffffffffff1681526020019060010190808311610358575b505050505090506000805b82518110156104c25760008382815181106103cb576103ca611444565b5b602002602001015190506000600160008373ffffffffffffffffffffffffffffffffffffffff1673ffffffffffffffffffffffffffffffffffffffff16815260200190815260200160002060008873ffffffffffffffffffffffffffffffffffffffff1673ffffffffffffffffffffffffffffffffffffffff1681526020019081526020016000206040518060400160405290816000820160009054906101000a900460ff161515151581526020016001820154815250509050806000015180156104995750428160200151115b156104ad5783806104a9906114a2565b9450505b505080806104ba906114a2565b9150506103ad565b5060008167ffffffffffffffff8111156104df576104de6114ea565b5b60405190808252806020026020018201604052801561051857816020015b610505610e9e565b8152602001906001900390816104fd5790505b5090506000805b845181101561074d57600085828151811061053d5761053c611444565b5b602002602001015190506000600160008373ffffffffffffffffffffffffffffffffffffffff1673ffffffffffffffffffffffffffffffffffffffff16815260200190815260200160002060008a73ffffffffffffffffffffffffffffffffffffffff1673ffffffffffffffffffffffffffffffffffffffff1681526020019081526020016000206040518060400160405290816000820160009054906101000a900460ff1615151515815260200160018201548152505090508060000151801561060b5750428160200151115b156107385760405180606001604052808373ffffffffffffffffffffffffffffffffffffffff1681526020016000808573ffffffffffffffffffffffffffffffffffffffff1673ffffffffffffffffffffffffffffffffffffffff168152602001908152602001600020805461068090611548565b80601f01602080910402602001604051908101604052809291908181526020018280546106ac90611548565b80156106f95780601f106106ce576101008083540402835291602001916106f9565b820191906000526020600020905b8154815290600101906020018083116106dc57829003601f168201915b50505050508152602001826020015181525085858151811061071e5761071d611444565b5b60200260200101819052508380610734906114a2565b9450505b50508080610745906114a2565b91505061051f565b5081945050505050919050565b606060008060003373ffffffffffffffffffffffffffffffffffffffff1673ffffffffffffffffffffffffffffffffffffffff16815260200190815260200160002080546107a790611548565b80601f01602080910402602001604051908101604052809291908181526020018280546107d390611548565b80156108205780601f106107f557610100808354040283529160200191610820565b820191906000526020600020905b81548152906001019060200180831161080357829003601f168201915b50505050509050600081510361086e576040518060400160405280600f81526020017f4e6f207265636f726420666f756e640000000000000000000000000000000000815250915050610873565b809150505b90565b6000602052806000526040600020600091509050805461089590611548565b80601f01602080910402602001604051908101604052809291908181526020018280546108c190611548565b801561090e5780601f106108e35761010080835404028352916020019161090e565b820191906000526020600020905b8154815290600101906020018083116108f157829003601f168201915b505050505081565b60606000600160008473ffffffffffffffffffffffffffffffffffffffff1673ffffffffffffffffffffffffffffffffffffffff16815260200190815260200160002060003373ffffffffffffffffffffffffffffffffffffffff1673ffffffffffffffffffffffffffffffffffffffff1681526020019081526020016000206040518060400160405290816000820160009054906101000a900460ff161515151581526020016001820154815250509050806000015180156109dc5750428160200151115b610a1b576040517f08c379a0000000000000000000000000000000000000000000000000000000008152600401610a12906115c5565b60405180910390fd5b6000808473ffffffffffffffffffffffffffffffffffffffff1673ffffffffffffffffffffffffffffffffffffffff1681526020019081526020016000208054610a6490611548565b80601f0160208091040260200160405190810160405280929190818152602001828054610a9090611548565b8015610add5780601f10610ab257610100808354040283529160200191610add565b820191906000526020600020905b815481529060010190602001808311610ac057829003601f168201915b5050505050915050919050565b60008060003373ffffffffffffffffffffffffffffffffffffffff1673ffffffffffffffffffffffffffffffffffffffff1681526020019081526020016000208054610b3590611548565b905003610ba0576002339080600181540180825580915050600190039060005260206000200160009091909190916101000a81548173ffffffffffffffffffffffffffffffffffffffff021916908373ffffffffffffffffffffffffffffffffffffffff1602179055505b81816000803373ffffffffffffffffffffffffffffffffffffffff1673ffffffffffffffffffffffffffffffffffffffff1681526020019081526020016000209182610bed92919061179c565b503373ffffffffffffffffffffffffffffffffffffffff167f01b64c1967d10407b4ff97725353edea760930f8e25d265e786a16eecbe4d7f78383604051610c369291906118a8565b60405180910390a25050565b600160003373ffffffffffffffffffffffffffffffffffffffff1673ffffffffffffffffffffffffffffffffffffffff16815260200190815260200160002060008373ffffffffffffffffffffffffffffffffffffffff1673ffffffffffffffffffffffffffffffffffffffff16815260200190815260200160002060000160009054906101000a900460ff16610d7457600360008373ffffffffffffffffffffffffffffffffffffffff1673ffffffffffffffffffffffffffffffffffffffff168152602001908152602001600020339080600181540180825580915050600190039060005260206000200160009091909190916101000a81548173ffffffffffffffffffffffffffffffffffffffff021916908373ffffffffffffffffffffffffffffffffffffffff1602179055505b604051806040016040528060011515815260200182815250600160003373ffffffffffffffffffffffffffffffffffffffff1673ffffffffffffffffffffffffffffffffffffffff16815260200190815260200160002060008473ffffffffffffffffffffffffffffffffffffffff1673ffffffffffffffffffffffffffffffffffffffff16815260200190815260200160002060008201518160000160006101000a81548160ff021916908315150217905550602082015181600101559050508173ffffffffffffffffffffffffffffffffffffffff163373ffffffffffffffffffffffffffffffffffffffff167f65d0cc1e52d49938ca4ad9f423c79c1b84d914b9a683fbc5d3f93ac3cc5635f583604051610e9291906118cc565b60405180910390a35050565b6040518060600160405280600073ffffffffffffffffffffffffffffffffffffffff16815260200160608152602001600081525090565b600080fd5b600080fd5b600073ffffffffffffffffffffffffffffffffffffffff82169050919050565b6000610f0a82610edf565b9050919050565b610f1a81610eff565b8114610f2557600080fd5b50565b600081359050610f3781610f11565b92915050565b60008060408385031215610f5457610f53610ed5565b5b6000610f6285828601610f28565b9250506020610f7385828601610f28565b9150509250929050565b60008115159050919050565b610f9281610f7d565b82525050565b6000819050919050565b610fab81610f98565b82525050565b6000604082019050610fc66000830185610f89565b610fd36020830184610fa2565b9392505050565b600060208284031215610ff057610fef610ed5565b5b6000610ffe84828501610f28565b91505092915050565b600081519050919050565b600082825260208201905092915050565b6000819050602082019050919050565b61103c81610eff565b82525050565b600061104e8383611033565b60208301905092915050565b6000602082019050919050565b600061107282611007565b61107c8185611012565b935061108783611023565b8060005b838110156110b857815161109f8882611042565b97506110aa8361105a565b92505060018101905061108b565b5085935050505092915050565b600060208201905081810360008301526110df8184611067565b905092915050565b600081519050919050565b600082825260208201905092915050565b6000819050602082019050919050565b600081519050919050565b600082825260208201905092915050565b60005b8381101561114d578082015181840152602081019050611132565b60008484015250505050565b6000601f19601f8301169050919050565b600061117582611113565b61117f818561111e565b935061118f81856020860161112f565b61119881611159565b840191505092915050565b6111ac81610f98565b82525050565b60006060830160008301516111ca6000860182611033565b50602083015184820360208601526111e2828261116a565b91505060408301516111f760408601826111a3565b508091505092915050565b600061120e83836111b2565b905092915050565b6000602082019050919050565b600061122e826110e7565b61123881856110f2565b93508360208202850161124a85611103565b8060005b8581101561128657848403895281516112678582611202565b945061127283611216565b925060208a0199505060018101905061124e565b50829750879550505050505092915050565b600060208201905081810360008301526112b28184611223565b905092915050565b600082825260208201905092915050565b60006112d682611113565b6112e081856112ba565b93506112f081856020860161112f565b6112f981611159565b840191505092915050565b6000602082019050818103600083015261131e81846112cb565b905092915050565b600080fd5b600080fd5b600080fd5b60008083601f84011261134b5761134a611326565b5b8235905067ffffffffffffffff8111156113685761136761132b565b5b60208301915083600182028301111561138457611383611330565b5b9250929050565b600080602083850312156113a2576113a1610ed5565b5b600083013567ffffffffffffffff8111156113c0576113bf610eda565b5b6113cc85828601611335565b92509250509250929050565b6113e181610f98565b81146113ec57600080fd5b50565b6000813590506113fe816113d8565b92915050565b6000806040838503121561141b5761141a610ed5565b5b600061142985828601610f28565b925050602061143a858286016113ef565b9150509250929050565b7f4e487b7100000000000000000000000000000000000000000000000000000000600052603260045260246000fd5b7f4e487b7100000000000000000000000000000000000000000000000000000000600052601160045260246000fd5b60006114ad82610f98565b91507fffffffffffffffffffffffffffffffffffffffffffffffffffffffffffffffff82036114df576114de611473565b5b600182019050919050565b7f4e487b7100000000000000000000000000000000000000000000000000000000600052604160045260246000fd5b7f4e487b7100000000000000000000000000000000000000000000000000000000600052602260045260246000fd5b6000600282049050600182168061156057607f821691505b60208210810361157357611572611519565b5b50919050565b7f4163636573732064656e696564206f7220657870697265640000000000000000600082015250565b60006115af6018836112ba565b91506115ba82611579565b602082019050919050565b600060208201905081810360008301526115de816115a2565b9050919050565b600082905092915050565b60008190508160005260206000209050919050565b60006020601f8301049050919050565b600082821b905092915050565b6000600883026116527fffffffffffffffffffffffffffffffffffffffffffffffffffffffffffffffff82611615565b61165c8683611615565b95508019841693508086168417925050509392505050565b6000819050919050565b600061169961169461168f84610f98565b611674565b610f98565b9050919050565b6000819050919050565b6116b38361167e565b6116c76116bf826116a0565b848454611622565b825550505050565b600090565b6116dc6116cf565b6116e78184846116aa565b505050565b5b8181101561170b576117006000826116d4565b6001810190506116ed565b5050565b601f82111561175057611721816115f0565b61172a84611605565b81016020851015611739578190505b61174d61174585611605565b8301826116ec565b50505b505050565b600082821c905092915050565b600061177360001984600802611755565b1980831691505092915050565b600061178c8383611762565b9150826002028217905092915050565b6117a683836115e5565b67ffffffffffffffff8111156117bf576117be6114ea565b5b6117c98254611548565b6117d482828561170f565b6000601f83116001811461180357600084156117f1578287013590505b6117fb8582611780565b865550611863565b601f198416611811866115f0565b60005b8281101561183957848901358255600182019150602085019450602081019050611814565b868310156118565784890135611852601f891682611762565b8355505b6001600288020188555050505b50505050505050565b82818337600083830152505050565b600061188783856112ba565b935061189483858461186c565b61189d83611159565b840190509392505050565b600060208201905081810360008301526118c381848661187b565b90509392505050565b60006020820190506118e16000830184610fa2565b9291505056fea2646970667358221220d2207d3e13e590fd72ca37da4ee5ba5aae18b081cbe55f9a3d7a4b7ec11799ce64736f6c63430008140033",
  "linkReferences": {},
  "deployedLinkReferences": {}
}