{
  "_format": "hh-sol-artifact-1",
  "contractName": "PatientRecords",
  "sourceName": "contracts/PatientRecords.sol",
  "abi": [
    {
      "anonymous": false,
      "inputs": [
        {
          "indexed": true,
          "internalType": "address",
          "name": "patient",
          "type": "address"
        },
        {
          "indexed": true,
          "internalType": "address",
          "name": "doctor",
          "type": "address"
        },
        {
          "indexed": false,
          "internalType": "uint256",
          "name": "expiresAt",
          "type": "uint256"
        }
      ],
      "name": "AccessGranted",
      "type": "event"
    },
    {
      "anonymous": false,
      "inputs": [
        {
          "indexed": true,
          "internalType": "address",
          "name": "patient",
          "type": "address"
        },
        {
          "indexed": true,
          "internalType": "address",
          "name": "doctor",
          "type": "address"
        }
      ],
      "name": "AccessRevoked",
      "type": "event"
    },
    {
      "anonymous": false,
      "inputs": [
        {
          "indexed": true,
          "internalType": "address",
          "name": "patient",
          "type": "address"
        },
        {
          "indexed": false,
          "internalType": "string",
          "name": "ipfsHash",
          "type": "string"
        }
      ],
      "name": "RecordUploaded",
      "type": "event"
    },
    {
      "inputs": [
        {
          "internalType": "address",
          "name": "",
          "type": "address"
        },
        {
          "internalType": "address",
          "name": "",
          "type": "address"
        }
      ],
      "name": "accessControl",
      "outputs": [
        {
          "internalType": "bool",
          "name": "granted",
          "type": "bool"
        },
        {
          "internalType": "uint256",
          "name": "expiresAt",
          "type": "uint256"
        }
      ],
      "stateMutability": "view",
      "type": "function"
    },
    {
      "inputs": [
        {
          "internalType": "address",
          "name": "doctor",
          "type": "address"
        }
      ],
      "name": "getDoctorAccessibleRecords",
      "outputs": [
        {
          "components": [
            {
              "internalType": "address",
              "name": "patientAddress",
              "type": "address"
            },
            {
              "internalType": "string",
              "name": "ipfsHash",
              "type": "string"
            },
            {
              "internalType": "uint256",
              "name": "expiresAt",
              "type": "uint256"
            }
          ],
          "internalType": "struct PatientRecords.PatientRecord[]",
          "name": "",
          "type": "tuple[]"
        }
      ],
      "stateMutability": "view",
      "type": "function"
    },
    {
      "inputs": [],
      "name": "getMyRecord",
      "outputs": [
        {
          "internalType": "string",
          "name": "",
          "type": "string"
        }
      ],
      "stateMutability": "view",
      "type": "function"
    },
    {
      "inputs": [
        {
          "internalType": "address",
          "name": "doctor",
          "type": "address"
        }
      ],
      "name": "getPatientsWhoGrantedAccess",
      "outputs": [
        {
          "internalType": "address[]",
          "name": "",
          "type": "address[]"
        }
      ],
      "stateMutability": "view",
      "type": "function"
    },
    {
      "inputs": [
        {
          "internalType": "address",
          "name": "patient",
          "type": "address"
        }
      ],
      "name": "getRecord",
      "outputs": [
        {
          "internalType": "string",
          "name": "",
          "type": "string"
        }
      ],
      "stateMutability": "view",
      "type": "function"
    },
    {
      "inputs": [
        {
          "internalType": "address",
          "name": "doctor",
          "type": "address"
        },
        {
          "internalType": "uint256",
          "name": "expiresAt",
          "type": "uint256"
        }
      ],
      "name": "grantAccess",
      "outputs": [],
      "stateMutability": "nonpayable",
      "type": "function"
    },
    {
      "inputs": [
        {
          "internalType": "address",
          "name": "",
          "type": "address"
        }
      ],
      "name": "patientToHash",
      "outputs": [
        {
          "internalType": "string",
          "name": "",
          "type": "string"
        }
      ],
      "stateMutability": "view",
      "type": "function"
    },
    {
      "inputs": [
        {
          "internalType": "address",
          "name": "doctor",
          "type": "address"
        }
      ],
      "name": "revokeAccess",
      "outputs": [],
      "stateMutability": "nonpayable",
      "type": "function"
    },
    {
      "inputs": [
        {
          "internalType": "string",
          "name": "ipfsHash",
          "type": "string"
        }
      ],
      "name": "uploadRecord",
      "outputs": [],
      "stateMutability": "nonpayable",
      "type": "function"
    }
  ],
  "bytecode": "0x608060405234801561001057600080fd5b50611b9a806100206000396000f3fe608060405234801561001057600080fd5b50600436106100935760003560e01c80635928f13f116100665780635928f13f14610147578063617fba04146101775780637fb869bb146101a757806385e68531146101c35780639df89256146101df57610093565b806303536d431461009857806324981341146100c95780632535de48146100f957806350d87c4d14610129575b600080fd5b6100b260048036038101906100ad919061114e565b6101fb565b6040516100c09291906111c2565b60405180910390f35b6100e360048036038101906100de91906111eb565b610239565b6040516100f091906112d6565b60405180910390f35b610113600480360381019061010e91906111eb565b610306565b60405161012091906114a9565b60405180910390f35b610131610781565b60405161013e9190611515565b60405180910390f35b610161600480360381019061015c91906111eb565b61089d565b60405161016e9190611515565b60405180910390f35b610191600480360381019061018c91906111eb565b61093d565b60405161019e9190611515565b60405180910390f35b6101c160048036038101906101bc919061159c565b610b11565b005b6101dd60048036038101906101d891906111eb565b610c69565b005b6101f960048036038101906101f49190611615565b610e53565b005b6001602052816000526040600020602052806000526040600020600091509150508060000160009054906101000a900460ff16908060010154905082565b6060600360008373ffffffffffffffffffffffffffffffffffffffff1673ffffffffffffffffffffffffffffffffffffffff1681526020019081526020016000208054806020026020016040519081016040528092919081815260200182805480156102fa57602002820191906000526020600020905b8160009054906101000a900473ffffffffffffffffffffffffffffffffffffffff1673ffffffffffffffffffffffffffffffffffffffff16815260200190600101908083116102b0575b50505050509050919050565b60606000600360008473ffffffffffffffffffffffffffffffffffffffff1673ffffffffffffffffffffffffffffffffffffffff1681526020019081526020016000208054806020026020016040519081016040528092919081815260200182805480156103c957602002820191906000526020600020905b8160009054906101000a900473ffffffffffffffffffffffffffffffffffffffff1673ffffffffffffffffffffffffffffffffffffffff168152602001906001019080831161037f575b505050505090506000805b82518110156104e95760008382815181106103f2576103f1611655565b5b602002602001015190506000600160008373ffffffffffffffffffffffffffffffffffffffff1673ffffffffffffffffffffffffffffffffffffffff16815260200190815260200160002060008873ffffffffffffffffffffffffffffffffffffffff1673ffffffffffffffffffffffffffffffffffffffff1681526020019081526020016000206040518060400160405290816000820160009054906101000a900460ff161515151581526020016001820154815250509050806000015180156104c05750428160200151115b156104d45783806104d0906116b3565b9450505b505080806104e1906116b3565b9150506103d4565b5060008167ffffffffffffffff811115610506576105056116fb565b5b60405190808252806020026020018201604052801561053f57816020015b61052c6110af565b8152602001906001900390816105245790505b5090506000805b845181101561077457600085828151811061056457610563611655565b5b602002602001015190506000600160008373ffffffffffffffffffffffffffffffffffffffff1673ffffffffffffffffffffffffffffffffffffffff16815260200190815260200160002060008a73ffffffffffffffffffffffffffffffffffffffff1673ffffffffffffffffffffffffffffffffffffffff1681526020019081526020016000206040518060400160405290816000820160009054906101000a900460ff161515151581526020016001820154815250509050806000015180156106325750428160200151115b1561075f5760405180606001604052808373ffffffffffffffffffffffffffffffffffffffff1681526020016000808573ffffffffffffffffffffffffffffffffffffffff1673ffffffffffffffffffffffffffffffffffffffff16815260200190815260200160002080546106a790611759565b80601f01602080910402602001604051908101604052809291908181526020018280546106d390611759565b80156107205780601f106106f557610100808354040283529160200191610720565b820191906000526020600020905b81548152906001019060200180831161070357829003601f168201915b50505050508152602001826020015181525085858151811061074557610744611655565b5b6020026020010181905250838061075b906116b3565b9450505b5050808061076c906116b3565b915050610546565b5081945050505050919050565b606060008060003373ffffffffffffffffffffffffffffffffffffffff1673ffffffffffffffffffffffffffffffffffffffff16815260200190815260200160002080546107ce90611759565b80601f01602080910402602001604051908101604052809291908181526020018280546107fa90611759565b80156108475780601f1061081c57610100808354040283529160200191610847565b820191906000526020600020905b81548152906001019060200180831161082a57829003601f168201915b505050505090506000815103610895576040518060400160405280600f81526020017f4e6f207265636f726420666f756e64000000000000000000000000000000000081525091505061089a565b809150505b90565b600060205280600052604060002060009150905080546108bc90611759565b80601f01602080910402602001604051908101604052809291908181526020018280546108e890611759565b80156109355780601f1061090a57610100808354040283529160200191610935565b820191906000526020600020905b81548152906001019060200180831161091857829003601f168201915b505050505081565b60606000600160008473ffffffffffffffffffffffffffffffffffffffff1673ffffffffffffffffffffffffffffffffffffffff16815260200190815260200160002060003373ffffffffffffffffffffffffffffffffffffffff1673ffffffffffffffffffffffffffffffffffffffff1681526020019081526020016000206040518060400160405290816000820160009054906101000a900460ff16151515158152602001600182015481525050905080600001518015610a035750428160200151115b610a42576040517f08c379a0000000000000000000000000000000000000000000000000000000008152600401610a39906117d6565b60405180910390fd5b6000808473ffffffffffffffffffffffffffffffffffffffff1673ffffffffffffffffffffffffffffffffffffffff1681526020019081526020016000208054610a8b90611759565b80601f0160208091040260200160405190810160405280929190818152602001828054610ab790611759565b8015610b045780601f10610ad957610100808354040283529160200191610b04565b820191906000526020600020905b815481529060010190602001808311610ae757829003601f168201915b5050505050915050919050565b60008060003373ffffffffffffffffffffffffffffffffffffffff1673ffffffffffffffffffffffffffffffffffffffff1681526020019081526020016000208054610b5c90611759565b905003610bc7576002339080600181540180825580915050600190039060005260206000200160009091909190916101000a81548173ffffffffffffffffffffffffffffffffffffffff021916908373ffffffffffffffffffffffffffffffffffffffff1602179055505b81816000803373ffffffffffffffffffffffffffffffffffffffff1673ffffffffffffffffffffffffffffffffffffffff1681526020019081526020016000209182610c149291906119ad565b503373ffffffffffffffffffffffffffffffffffffffff167f01b64c1967d10407b4ff97725353edea760930f8e25d265e786a16eecbe4d7f78383604051610c5d929190611ab9565b60405180910390a25050565b600160003373ffffffffffffffffffffffffffffffffffffffff1673ffffffffffffffffffffffffffffffffffffffff16815260200190815260200160002060008273ffffffffffffffffffffffffffffffffffffffff1673ffffffffffffffffffffffffffffffffffffffff16815260200190815260200160002060000160009054906101000a900460ff16610d35576040517f08c379a0000000000000000000000000000000000000000000000000000000008152600401610d2c90611b29565b60405180910390fd5b604051806040016040528060001515815260200142815250600160003373ffffffffffffffffffffffffffffffffffffffff1673ffffffffffffffffffffffffffffffffffffffff16815260200190815260200160002060008373ffffffffffffffffffffffffffffffffffffffff1673ffffffffffffffffffffffffffffffffffffffff16815260200190815260200160002060008201518160000160006101000a81548160ff021916908315150217905550602082015181600101559050508073ffffffffffffffffffffffffffffffffffffffff163373ffffffffffffffffffffffffffffffffffffffff167f825c8be24eb0df19500f63e86c29e7d0d951e73056b889b891d85e40938d9b6e60405160405180910390a350565b600160003373ffffffffffffffffffffffffffffffffffffffff1673ffffffffffffffffffffffffffffffffffffffff16815260200190815260200160002060008373ffffffffffffffffffffffffffffffffffffffff1673ffffffffffffffffffffffffffffffffffffffff16815260200190815260200160002060000160009054906101000a900460ff16610f8557600360008373ffffffffffffffffffffffffffffffffffffffff1673ffffffffffffffffffffffffffffffffffffffff168152602001908152602001600020339080600181540180825580915050600190039060005260206000200160009091909190916101000a81548173ffffffffffffffffffffffffffffffffffffffff021916908373ffffffffffffffffffffffffffffffffffffffff1602179055505b604051806040016040528060011515815260200182815250600160003373ffffffffffffffffffffffffffffffffffffffff1673ffffffffffffffffffffffffffffffffffffffff16815260200190815260200160002060008473ffffffffffffffffffffffffffffffffffffffff1673ffffffffffffffffffffffffffffffffffffffff16815260200190815260200160002060008201518160000160006101000a81548160ff021916908315150217905550602082015181600101559050508173ffffffffffffffffffffffffffffffffffffffff163373ffffffffffffffffffffffffffffffffffffffff167f65d0cc1e52d49938ca4ad9f423c79c1b84d914b9a683fbc5d3f93ac3cc5635f5836040516110a39190611b49565b60405180910390a35050565b6040518060600160405280600073ffffffffffffffffffffffffffffffffffffffff16815260200160608152602001600081525090565b600080fd5b600080fd5b600073ffffffffffffffffffffffffffffffffffffffff82169050919050565b600061111b826110f0565b9050919050565b61112b81611110565b811461113657600080fd5b50565b60008135905061114881611122565b92915050565b60008060408385031215611165576111646110e6565b5b600061117385828601611139565b925050602061118485828601611139565b9150509250929050565b60008115159050919050565b6111a38161118e565b82525050565b6000819050919050565b6111bc816111a9565b82525050565b60006040820190506111d7600083018561119a565b6111e460208301846111b3565b9392505050565b600060208284031215611201576112006110e6565b5b600061120f84828501611139565b91505092915050565b600081519050919050565b600082825260208201905092915050565b6000819050602082019050919050565b61124d81611110565b82525050565b600061125f8383611244565b60208301905092915050565b6000602082019050919050565b600061128382611218565b61128d8185611223565b935061129883611234565b8060005b838110156112c95781516112b08882611253565b97506112bb8361126b565b92505060018101905061129c565b5085935050505092915050565b600060208201905081810360008301526112f08184611278565b905092915050565b600081519050919050565b600082825260208201905092915050565b6000819050602082019050919050565b600081519050919050565b600082825260208201905092915050565b60005b8381101561135e578082015181840152602081019050611343565b60008484015250505050565b6000601f19601f8301169050919050565b600061138682611324565b611390818561132f565b93506113a0818560208601611340565b6113a98161136a565b840191505092915050565b6113bd816111a9565b82525050565b60006060830160008301516113db6000860182611244565b50602083015184820360208601526113f3828261137b565b915050604083015161140860408601826113b4565b508091505092915050565b600061141f83836113c3565b905092915050565b6000602082019050919050565b600061143f826112f8565b6114498185611303565b93508360208202850161145b85611314565b8060005b8581101561149757848403895281516114788582611413565b945061148383611427565b925060208a0199505060018101905061145f565b50829750879550505050505092915050565b600060208201905081810360008301526114c38184611434565b905092915050565b600082825260208201905092915050565b60006114e782611324565b6114f181856114cb565b9350611501818560208601611340565b61150a8161136a565b840191505092915050565b6000602082019050818103600083015261152f81846114dc565b905092915050565b600080fd5b600080fd5b600080fd5b60008083601f84011261155c5761155b611537565b5b8235905067ffffffffffffffff8111156115795761157861153c565b5b60208301915083600182028301111561159557611594611541565b5b9250929050565b600080602083850312156115b3576115b26110e6565b5b600083013567ffffffffffffffff8111156115d1576115d06110eb565b5b6115dd85828601611546565b92509250509250929050565b6115f2816111a9565b81146115fd57600080fd5b50565b60008135905061160f816115e9565b92915050565b6000806040838503121561162c5761162b6110e6565b5b600061163a85828601611139565b925050602061164b85828601611600565b9150509250929050565b7f4e487b7100000000000000000000000000000000000000000000000000000000600052603260045260246000fd5b7f4e487b7100000000000000000000000000000000000000000000000000000000600052601160045260246000fd5b60006116be826111a9565b91507fffffffffffffffffffffffffffffffffffffffffffffffffffffffffffffffff82036116f0576116ef611684565b5b600182019050919050565b7f4e487b7100000000000000000000000000000000000000000000000000000000600052604160045260246000fd5b7f4e487b7100000000000000000000000000000000000000000000000000000000600052602260045260246000fd5b6000600282049050600182168061177157607f821691505b6020821081036117845761178361172a565b5b50919050565b7f4163636573732064656e696564206f7220657870697265640000000000000000600082015250565b60006117c06018836114cb565b91506117cb8261178a565b602082019050919050565b600060208201905081810360008301526117ef816117b3565b9050919050565b600082905092915050565b60008190508160005260206000209050919050565b60006020601f8301049050919050565b600082821b905092915050565b6000600883026118637fffffffffffffffffffffffffffffffffffffffffffffffffffffffffffffffff82611826565b61186d8683611826565b95508019841693508086168417925050509392505050565b6000819050919050565b60006118aa6118a56118a0846111a9565b611885565b6111a9565b9050919050565b6000819050919050565b6118c48361188f565b6118d86118d0826118b1565b848454611833565b825550505050565b600090565b6118ed6118e0565b6118f88184846118bb565b505050565b5b8181101561191c576119116000826118e5565b6001810190506118fe565b5050565b601f8211156119615761193281611801565b61193b84611816565b8101602085101561194a578190505b61195e61195685611816565b8301826118fd565b50505b505050565b600082821c905092915050565b600061198460001984600802611966565b1980831691505092915050565b600061199d8383611973565b9150826002028217905092915050565b6119b783836117f6565b67ffffffffffffffff8111156119d0576119cf6116fb565b5b6119da8254611759565b6119e5828285611920565b6000601f831160018114611a145760008415611a02578287013590505b611a0c8582611991565b865550611a74565b601f198416611a2286611801565b60005b82811015611a4a57848901358255600182019150602085019450602081019050611a25565b86831015611a675784890135611a63601f891682611973565b8355505b6001600288020188555050505b50505050505050565b82818337600083830152505050565b6000611a9883856114cb565b9350611aa5838584611a7d565b611aae8361136a565b840190509392505050565b60006020820190508181036000830152611ad4818486611a8c565b90509392505050565b7f4e6f20616363657373206772616e74656420746f207265766f6b650000000000600082015250565b6000611b13601b836114cb565b9150611b1e82611add565b602082019050919050565b60006020820190508181036000830152611b4281611b06565b9050919050565b6000602082019050611b5e60008301846111b3565b9291505056fea26469706673582212202ab24859949306beddff9f1c8796b11b5858254c8d14cbed37fe699ed6a00cbf64736f6c63430008140033",
  "linkReferences": {},
  "deployedLinkReferences": {}
}